{
  "contractName": "HealthRecordManagement",
  "abi": [
    {
      "inputs": [],
      "payable": false,
      "stateMutability": "nonpayable",
      "type": "constructor"
    },
    {
      "constant": false,
      "inputs": [
        {
          "name": "patientId",
          "type": "string"
        }
      ],
      "name": "registerPatient",
      "outputs": [],
      "payable": false,
      "stateMutability": "nonpayable",
      "type": "function"
    },
    {
      "constant": false,
      "inputs": [
        {
          "name": "patientId",
          "type": "string"
        },
        {
          "name": "hash",
          "type": "string"
        }
      ],
      "name": "addHealthRecord",
      "outputs": [],
      "payable": false,
      "stateMutability": "nonpayable",
      "type": "function"
    },
    {
      "constant": true,
      "inputs": [
        {
          "name": "patientId",
          "type": "string"
        }
      ],
      "name": "getHealthRecordCount",
      "outputs": [
        {
          "name": "",
          "type": "uint256"
        }
      ],
      "payable": false,
      "stateMutability": "view",
      "type": "function"
    },
    {
      "constant": true,
      "inputs": [
        {
          "name": "patientId",
          "type": "string"
        },
        {
          "name": "index",
          "type": "uint256"
        }
      ],
      "name": "getHealthRecord",
      "outputs": [
        {
          "name": "",
          "type": "string"
        },
        {
          "name": "",
          "type": "uint256"
        }
      ],
      "payable": false,
      "stateMutability": "view",
      "type": "function"
    }
  ],
  "bytecode": "0x608060405234801561001057600080fd5b50600180604051806000019050908152602001604051809103902060006101000a81548160ff021916908315150217905550610d45806100516000396000f300608060405260043610610062576000357c0100000000000000000000000000000000000000000000000000000000900463ffffffff168063211b8d1414610067578063663002e814610116578063869c9eaf14610209578063a61b596b14610272575b600080fd5b34801561007357600080fd5b50610114600480360381019080803590602001908201803590602001908080601f0160208091040260200160405190810160405280939291908181526020018383808284378201915050505050509192919290803590602001908201803590602001908080601f01602080910402602001604051908101604052809392919081815260200183838082843782019150505050505091929192905050506102ef565b005b34801561012257600080fd5b50610187600480360381019080803590602001908201803590602001908080601f01602080910402602001604051908101604052809392919081815260200183838082843782019150505050505091929192908035906020019092919050505061067f565b6040518080602001838152602001828103825284818151815260200191508051906020019080838360005b838110156101cd5780820151818401526020810190506101b2565b50505050905090810190601f1680156101fa5780820380516001836020036101000a031916815260200191505b50935050505060405180910390f35b34801561021557600080fd5b50610270600480360381019080803590602001908201803590602001908080601f0160208091040260200160405190810160405280939291908181526020018383808284378201915050505050509192919290505050610891565b005b34801561027e57600080fd5b506102d9600480360381019080803590602001908201803590602001908080601f0160208091040260200160405190810160405280939291908181526020018383808284378201915050505050509192919290505050610bfc565b6040518082815260200191505060405180910390f35b600115156000836040518082805190602001908083835b60208310151561032b5780518252602082019150602081019050602083039250610306565b6001836020036101000a038019825116818451168082178552505050505050905001915050908152602001604051809103902060009054906101000a900460ff161515141515610409576040517f08c379a00000000000000000000000000000000000000000000000000000000081526004018080602001828103825260218152602001807f50617469656e74206d757374206265207265676973746572656420666972737481526020017f2e0000000000000000000000000000000000000000000000000000000000000081525060400191505060405180910390fd5b600015156001826040518082805190602001908083835b6020831015156104455780518252602082019150602081019050602083039250610420565b6001836020036101000a038019825116818451168082178552505050505050905001915050908152602001604051809103902060009054906101000a900460ff161515141515610523576040517f08c379a000000000000000000000000000000000000000000000000000000000815260040180806020018281038252602a8152602001807f48617368206d757374206e6f7420657869737420696e7369646520746865206281526020017f6c6f636b636861696e2e0000000000000000000000000000000000000000000081525060400191505060405180910390fd5b6002826040518082805190602001908083835b60208310151561055b5780518252602082019150602081019050602083039250610536565b6001836020036101000a03801982511681845116808217855250505050505090500191505090815260200160405180910390206040805190810160405280838152602001428152509080600181540180825580915050906001820390600052602060002090600202016000909192909190915060008201518160000190805190602001906105ea929190610c74565b5060208201518160010155505050600180826040518082805190602001908083835b602083101515610631578051825260208201915060208101905060208303925061060c565b6001836020036101000a038019825116818451168082178552505050505050905001915050908152602001604051809103902060006101000a81548160ff0219169083151502179055505050565b60606000806060600061069187610bfc565b86101515610753576040517f08c379a00000000000000000000000000000000000000000000000000000000081526004018080602001828103825260578152602001807f496e646578206d757374206265206c657373207468616e206e756d626572206f81526020017f66206865616c7468207265636f726473206f6620746869732070617469656e7481526020017f20696e736964652074686520626c6f636b636861696e2e00000000000000000081525060600191505060405180910390fd5b6002876040518082805190602001908083835b60208310151561078b5780518252602082019150602081019050602083039250610766565b6001836020036101000a0380198251168184511680821785525050505050509050019150509081526020016040518091039020868154811015156107cb57fe5b90600052602060002090600202019250826000018054600181600116156101000203166002900480601f0160208091040260200160405190810160405280929190818152602001828054600181600116156101000203166002900480156108735780601f1061084857610100808354040283529160200191610873565b820191906000526020600020905b81548152906001019060200180831161085657829003601f168201915b50505050509150826001015490508181945094505050509250929050565b600015156000826040518082805190602001908083835b6020831015156108cd57805182526020820191506020810190506020830392506108a8565b6001836020036101000a038019825116818451168082178552505050505050905001915050908152602001604051809103902060009054906101000a900460ff1615151415156109ab576040517f08c379a00000000000000000000000000000000000000000000000000000000081526004018080602001828103825260238152602001807f546869732070617469656e7420697320616c726561647920726567697374657281526020017f65642e000000000000000000000000000000000000000000000000000000000081525060400191505060405180910390fd5b6040516020018060000190506040516020818303038152906040526040518082805190602001908083835b6020831015156109fb57805182526020820191506020810190506020830392506109d6565b6001836020036101000a038019825116818451168082178552505050505050905001915050604051809103902060001916816040516020018082805190602001908083835b602083101515610a655780518252602082019150602081019050602083039250610a40565b6001836020036101000a0380198251168184511680821785525050505050509050019150506040516020818303038152906040526040518082805190602001908083835b602083101515610ace5780518252602082019150602081019050602083039250610aa9565b6001836020036101000a03801982511681845116808217855250505050505090500191505060405180910390206000191614151515610b75576040517f08c379a00000000000000000000000000000000000000000000000000000000081526004018080602001828103825260198152602001807f496e7075742070617469656e74496420697320626c616e6b2e0000000000000081525060200191505060405180910390fd5b60016000826040518082805190602001908083835b602083101515610baf5780518252602082019150602081019050602083039250610b8a565b6001836020036101000a038019825116818451168082178552505050505050905001915050908152602001604051809103902060006101000a81548160ff02191690831515021790555050565b60006002826040518082805190602001908083835b602083101515610c365780518252602082019150602081019050602083039250610c11565b6001836020036101000a0380198251168184511680821785525050505050509050019150509081526020016040518091039020805490509050919050565b828054600181600116156101000203166002900490600052602060002090601f016020900481019282601f10610cb557805160ff1916838001178555610ce3565b82800160010185558215610ce3579182015b82811115610ce2578251825591602001919060010190610cc7565b5b509050610cf09190610cf4565b5090565b610d1691905b80821115610d12576000816000905550600101610cfa565b5090565b905600a165627a7a723058200fe494cc6eccca5b6faf6f168fda51e5170d9f38829892c524a71a4cc7d5be850029",
  "source": "pragma solidity ^0.4.25;\n\ncontract HealthRecordManagement\n{\n  struct HealthRecord {\n      string ipfsHash;\n      uint timestamp;\n  }\n  \n  //remove loop from function exists\n  mapping(string => bool) patientExists;\n  mapping(string => bool) hashExists;\n  mapping(string => HealthRecord[]) allHealthRecords;\n  \n  constructor() public {\n      \n    //prevent blank hash inputs\n    hashExists[\"\"] = true;\n  }\n  \n  function registerPatient(string memory patientId) public {\n    \n    //require patient's non-existence and non-blank patientId\n    require(patientExists[patientId] == false, \"This patient is already registered.\");\n    require(keccak256(abi.encodePacked(patientId)) != keccak256(abi.encodePacked(\"\")), \"Input patientId is blank.\");\n    patientExists[patientId] = true;\n  }\n  \n  function addHealthRecord(string memory patientId, string memory hash) public {\n    \n    //require patient's existence and hash's non-existence\n    require(patientExists[patientId] == true, \"Patient must be registered first.\");\n    require(hashExists[hash] == false, \"Hash must not exist inside the blockchain.\");\n\n    //after passing all checks the put it in the array\n    allHealthRecords[patientId].push(HealthRecord(hash, now));\n    hashExists[hash] = true;\n  }\n\n  function getHealthRecordCount(string memory patientId) public view returns (uint){\n      \n    //don't check for patient's existence for added security\n    return allHealthRecords[patientId].length;\n  }\n\n  function getHealthRecord(string memory patientId, uint index) public view returns (string memory, uint) {\n\n    //don't check for patient's existence for added security\n    //require that the index inside the array actually exists\n    require(index < getHealthRecordCount(patientId), \"Index must be less than number of health records of this patient inside the blockchain.\");\n\n    //save the struct to separate variables\n    HealthRecord storage healthrecord = allHealthRecords[patientId][index];\n    string memory a = healthrecord.ipfsHash;\n    uint b = healthrecord.timestamp;\n    \n    //return variables\n    return (a, b);\n  }\n  \n}\n",
  "sourcePath": "/home/event1/Documents/web3.py/Deployment/truffle/contracts/HealthRecordManagement.sol",
  "compiler": {
    "name": "solc",
    "version": "0.4.25+commit.59dbf8f1.Emscripten.clang"
  },
  "schemaVersion": "2.0.2",
  "updatedAt": "2019-06-27T03:47:23.345Z"
}